{
  "contractName": "LandContract",
  "abi": [
    {
      "constant": true,
      "inputs": [],
      "name": "name",
      "outputs": [
        {
          "name": "",
          "type": "string"
        }
      ],
      "payable": false,
      "stateMutability": "view",
      "type": "function"
    },
    {
      "constant": true,
      "inputs": [],
      "name": "owner",
      "outputs": [
        {
          "name": "",
          "type": "address"
        }
      ],
      "payable": false,
      "stateMutability": "view",
      "type": "function"
    },
    {
      "constant": true,
      "inputs": [],
      "name": "landCount",
      "outputs": [
        {
          "name": "",
          "type": "uint256"
        }
      ],
      "payable": false,
      "stateMutability": "view",
      "type": "function"
    },
    {
      "constant": true,
      "inputs": [
        {
          "name": "",
          "type": "uint256"
        }
      ],
      "name": "lands",
      "outputs": [
        {
          "name": "landID",
          "type": "uint256"
        },
        {
          "name": "location",
          "type": "string"
        },
        {
          "name": "value",
          "type": "uint256"
        },
        {
          "name": "owner",
          "type": "address"
        },
        {
          "name": "forSale",
          "type": "bool"
        }
      ],
      "payable": false,
      "stateMutability": "view",
      "type": "function"
    },
    {
      "inputs": [],
      "payable": false,
      "stateMutability": "nonpayable",
      "type": "constructor"
    },
    {
      "anonymous": false,
      "inputs": [
        {
          "indexed": false,
          "name": "landID",
          "type": "uint256"
        },
        {
          "indexed": false,
          "name": "location",
          "type": "string"
        },
        {
          "indexed": false,
          "name": "value",
          "type": "uint256"
        },
        {
          "indexed": false,
          "name": "owner",
          "type": "address"
        },
        {
          "indexed": false,
          "name": "forSale",
          "type": "bool"
        }
      ],
      "name": "Add",
      "type": "event"
    },
    {
      "anonymous": false,
      "inputs": [
        {
          "indexed": false,
          "name": "landID",
          "type": "uint256"
        },
        {
          "indexed": false,
          "name": "location",
          "type": "string"
        },
        {
          "indexed": false,
          "name": "value",
          "type": "uint256"
        },
        {
          "indexed": false,
          "name": "owner",
          "type": "address"
        },
        {
          "indexed": false,
          "name": "forSale",
          "type": "bool"
        }
      ],
      "name": "Transfer",
      "type": "event"
    },
    {
      "anonymous": false,
      "inputs": [
        {
          "indexed": false,
          "name": "landID",
          "type": "uint256"
        },
        {
          "indexed": false,
          "name": "location",
          "type": "string"
        },
        {
          "indexed": false,
          "name": "value",
          "type": "uint256"
        },
        {
          "indexed": false,
          "name": "owner",
          "type": "address"
        },
        {
          "indexed": false,
          "name": "forSale",
          "type": "bool"
        }
      ],
      "name": "List",
      "type": "event"
    },
    {
      "constant": false,
      "inputs": [
        {
          "name": "_location",
          "type": "string"
        },
        {
          "name": "_value",
          "type": "uint256"
        }
      ],
      "name": "addLand",
      "outputs": [],
      "payable": false,
      "stateMutability": "nonpayable",
      "type": "function"
    },
    {
      "constant": false,
      "inputs": [
        {
          "name": "_id",
          "type": "uint256"
        }
      ],
      "name": "buyLand",
      "outputs": [],
      "payable": true,
      "stateMutability": "payable",
      "type": "function"
    },
    {
      "constant": false,
      "inputs": [
        {
          "name": "_id",
          "type": "uint256"
        },
        {
          "name": "_value",
          "type": "uint256"
        }
      ],
      "name": "listLand",
      "outputs": [],
      "payable": true,
      "stateMutability": "payable",
      "type": "function"
    }
  ],
  "bytecode": "0x608060405260006002553480156200001657600080fd5b506040805190810160405280600e81526020017f457468657265756d20486f6d65730000000000000000000000000000000000008152506000908051906020019062000064929190620000ac565b5033600160006101000a81548173ffffffffffffffffffffffffffffffffffffffff021916908373ffffffffffffffffffffffffffffffffffffffff1602179055506200015b565b828054600181600116156101000203166002900490600052602060002090601f016020900481019282601f10620000ef57805160ff191683800117855562000120565b8280016001018555821562000120579182015b828111156200011f57825182559160200191906001019062000102565b5b5090506200012f919062000133565b5090565b6200015891905b80821115620001545760008160009055506001016200013a565b5090565b90565b61147c806200016b6000396000f3fe608060405260043610610083576000357c0100000000000000000000000000000000000000000000000000000000900463ffffffff16806306fdde03146100885780638da5cb5b14610118578063ced395581461016f578063d7bce6581461019d578063e261f1e5146101c8578063e6ed0fff146102c8578063f35fb2091461039a575b600080fd5b34801561009457600080fd5b5061009d6103d2565b6040518080602001828103825283818151815260200191508051906020019080838360005b838110156100dd5780820151818401526020810190506100c2565b50505050905090810190601f16801561010a5780820380516001836020036101000a031916815260200191505b509250505060405180910390f35b34801561012457600080fd5b5061012d610470565b604051808273ffffffffffffffffffffffffffffffffffffffff1673ffffffffffffffffffffffffffffffffffffffff16815260200191505060405180910390f35b61019b6004803603602081101561018557600080fd5b8101908080359060200190929190505050610496565b005b3480156101a957600080fd5b506101b2610a58565b6040518082815260200191505060405180910390f35b3480156101d457600080fd5b50610201600480360360208110156101eb57600080fd5b8101908080359060200190929190505050610a5e565b60405180868152602001806020018581526020018473ffffffffffffffffffffffffffffffffffffffff1673ffffffffffffffffffffffffffffffffffffffff16815260200183151515158152602001828103825286818151815260200191508051906020019080838360005b8381101561028957808201518184015260208101905061026e565b50505050905090810190601f1680156102b65780820380516001836020036101000a031916815260200191505b50965050505050505060405180910390f35b3480156102d457600080fd5b50610398600480360360408110156102eb57600080fd5b810190808035906020019064010000000081111561030857600080fd5b82018360208201111561031a57600080fd5b8035906020019184600183028401116401000000008311171561033c57600080fd5b91908080601f016020809104026020016040519081016040528093929190818152602001838380828437600081840152601f19601f82011690508083019250505050505050919291929080359060200190929190505050610b59565b005b6103d0600480360360408110156103b057600080fd5b810190808035906020019092919080359060200190929190505050610e9e565b005b60008054600181600116156101000203166002900480601f0160208091040260200160405190810160405280929190818152602001828054600181600116156101000203166002900480156104685780601f1061043d57610100808354040283529160200191610468565b820191906000526020600020905b81548152906001019060200180831161044b57829003601f168201915b505050505081565b600160009054906101000a900473ffffffffffffffffffffffffffffffffffffffff1681565b61049e611363565b6003600083815260200190815260200160002060a0604051908101604052908160008201548152602001600182018054600181600116156101000203166002900480601f0160208091040260200160405190810160405280929190818152602001828054600181600116156101000203166002900480156105605780601f1061053557610100808354040283529160200191610560565b820191906000526020600020905b81548152906001019060200180831161054357829003601f168201915b50505050508152602001600282015481526020016003820160009054906101000a900473ffffffffffffffffffffffffffffffffffffffff1673ffffffffffffffffffffffffffffffffffffffff1673ffffffffffffffffffffffffffffffffffffffff1681526020016003820160149054906101000a900460ff1615151515815250509050600081606001519050600082600001511180156106095750600254826000015111155b151561067d576040517f08c379a00000000000000000000000000000000000000000000000000000000081526004018080602001828103825260138152602001807f6c616e6420646f6573206e6f742065786973740000000000000000000000000081525060200191505060405180910390fd5b816040015134101515156106f9576040517f08c379a00000000000000000000000000000000000000000000000000000000081526004018080602001828103825260108152602001807f4e6f7420656e6f7567682066756e64730000000000000000000000000000000081525060200191505060405180910390fd5b6001151582608001511515141515610779576040517f08c379a00000000000000000000000000000000000000000000000000000000081526004018080602001828103825260148152602001807f6c616e64206973206e6f7420666f722073616c6500000000000000000000000081525060200191505060405180910390fd5b3373ffffffffffffffffffffffffffffffffffffffff168173ffffffffffffffffffffffffffffffffffffffff161415151561081d576040517f08c379a000000000000000000000000000000000000000000000000000000000815260040180806020018281038252601a8152602001807f62757965722063616e6e6f74206265206c616e64206f776e657200000000000081525060200191505060405180910390fd5b33826060019073ffffffffffffffffffffffffffffffffffffffff16908173ffffffffffffffffffffffffffffffffffffffff1681525050600082608001901515908115158152505081600360008581526020019081526020016000206000820151816000015560208201518160010190805190602001906108a09291906113ab565b506040820151816002015560608201518160030160006101000a81548173ffffffffffffffffffffffffffffffffffffffff021916908373ffffffffffffffffffffffffffffffffffffffff16021790555060808201518160030160146101000a81548160ff0219169083151502179055509050508073ffffffffffffffffffffffffffffffffffffffff166108fc349081150290604051600060405180830381858888f1935050505015801561095b573d6000803e3d6000fd5b507ff6058d925aaac6fafc272442a7b5c5d8aac85c921100fd2e254e3ecf89f7ba316002548360200151846040015133600060405180868152602001806020018581526020018473ffffffffffffffffffffffffffffffffffffffff1673ffffffffffffffffffffffffffffffffffffffff16815260200183151515158152602001828103825286818151815260200191508051906020019080838360005b83811015610a155780820151818401526020810190506109fa565b50505050905090810190601f168015610a425780820380516001836020036101000a031916815260200191505b50965050505050505060405180910390a1505050565b60025481565b6003602052806000526040600020600091509050806000015490806001018054600181600116156101000203166002900480601f016020809104026020016040519081016040528092919081815260200182805460018160011615610100020316600290048015610b105780601f10610ae557610100808354040283529160200191610b10565b820191906000526020600020905b815481529060010190602001808311610af357829003601f168201915b5050505050908060020154908060030160009054906101000a900473ffffffffffffffffffffffffffffffffffffffff16908060030160149054906101000a900460ff16905085565b600160009054906101000a900473ffffffffffffffffffffffffffffffffffffffff1673ffffffffffffffffffffffffffffffffffffffff163373ffffffffffffffffffffffffffffffffffffffff16141515610bb557600080fd5b60008251111515610c2e576040517f08c379a00000000000000000000000000000000000000000000000000000000081526004018080602001828103825260188152602001807f4d75737420626520612076616c6964206c6f636174696f6e000000000000000081525060200191505060405180910390fd5b600081111515610ca6576040517f08c379a000000000000000000000000000000000000000000000000000000000815260040180806020018281038252600f8152602001807f4d75737420626520612076616c7565000000000000000000000000000000000081525060200191505060405180910390fd5b60026000815480929190600101919050555060a06040519081016040528060025481526020018381526020018281526020013373ffffffffffffffffffffffffffffffffffffffff16815260200160011515815250600360006002548152602001908152602001600020600082015181600001556020820151816001019080519060200190610d369291906113ab565b506040820151816002015560608201518160030160006101000a81548173ffffffffffffffffffffffffffffffffffffffff021916908373ffffffffffffffffffffffffffffffffffffffff16021790555060808201518160030160146101000a81548160ff0219169083151502179055509050507fb89ec84ff7a8e45184b005a44c7cc48d0e92b5f6b78a5f9d768757d697685412600254838333600160405180868152602001806020018581526020018473ffffffffffffffffffffffffffffffffffffffff1673ffffffffffffffffffffffffffffffffffffffff16815260200183151515158152602001828103825286818151815260200191508051906020019080838360005b83811015610e5c578082015181840152602081019050610e41565b50505050905090810190601f168015610e895780820380516001836020036101000a031916815260200191505b50965050505050505060405180910390a15050565b610ea6611363565b6003600084815260200190815260200160002060a0604051908101604052908160008201548152602001600182018054600181600116156101000203166002900480601f016020809104026020016040519081016040528092919081815260200182805460018160011615610100020316600290048015610f685780601f10610f3d57610100808354040283529160200191610f68565b820191906000526020600020905b815481529060010190602001808311610f4b57829003601f168201915b50505050508152602001600282015481526020016003820160009054906101000a900473ffffffffffffffffffffffffffffffffffffffff1673ffffffffffffffffffffffffffffffffffffffff1673ffffffffffffffffffffffffffffffffffffffff1681526020016003820160149054906101000a900460ff1615151515815250509050600081600001511180156110085750600254816000015111155b151561107c576040517f08c379a00000000000000000000000000000000000000000000000000000000081526004018080602001828103825260138152602001807f6c616e6420646f6573206e6f742065786973740000000000000000000000000081525060200191505060405180910390fd5b3373ffffffffffffffffffffffffffffffffffffffff16816060015173ffffffffffffffffffffffffffffffffffffffff16141515611123576040517f08c379a000000000000000000000000000000000000000000000000000000000815260040180806020018281038252601a8152602001807f796f7520617265206e6f7420746865206c616e64206f776e657200000000000081525060200191505060405180910390fd5b60001515816080015115151415156111a3576040517f08c379a00000000000000000000000000000000000000000000000000000000081526004018080602001828103825260168152602001807f6c616e6420697320616c7265616479206c69737465640000000000000000000081525060200191505060405180910390fd5b60018160800190151590811515815250508181604001818152505080600360008581526020019081526020016000206000820151816000015560208201518160010190805190602001906111f89291906113ab565b506040820151816002015560608201518160030160006101000a81548173ffffffffffffffffffffffffffffffffffffffff021916908373ffffffffffffffffffffffffffffffffffffffff16021790555060808201518160030160146101000a81548160ff0219169083151502179055509050507f860792ae13c1e1b4bfed2f0126e03c27cd34ceddf6b678ee73493c134c4a2e338382602001518433600160405180868152602001806020018581526020018473ffffffffffffffffffffffffffffffffffffffff1673ffffffffffffffffffffffffffffffffffffffff16815260200183151515158152602001828103825286818151815260200191508051906020019080838360005b83811015611320578082015181840152602081019050611305565b50505050905090810190601f16801561134d5780820380516001836020036101000a031916815260200191505b50965050505050505060405180910390a1505050565b60a060405190810160405280600081526020016060815260200160008152602001600073ffffffffffffffffffffffffffffffffffffffff1681526020016000151581525090565b828054600181600116156101000203166002900490600052602060002090601f016020900481019282601f106113ec57805160ff191683800117855561141a565b8280016001018555821561141a579182015b828111156114195782518255916020019190600101906113fe565b5b509050611427919061142b565b5090565b61144d91905b80821115611449576000816000905550600101611431565b5090565b9056fea165627a7a72305820f897d2c59239c69c6a7e82c434e5d8ffe8e5650a64a97b89b387e71d305f31f60029",
  "source": "// SPDX-License-Identifier: MIT\r\npragma solidity >=0.4.25 <0.6.0;\r\n\r\ncontract LandContract {\r\n\r\n  string public name;\r\n  address public owner;\r\n  uint public landCount = 0;\r\n\r\n  mapping(uint => Land) public lands;\r\n\r\n  struct Land {\r\n    uint landID;\r\n    string location;\r\n    uint value;\r\n    address payable owner;\r\n    bool forSale;\r\n  }\r\n\r\n  constructor() public {\r\n    name = \"Ethereum Homes\";\r\n    owner = msg.sender;\r\n  }\r\n  \r\n  event Add(\r\n    uint landID, \r\n    string location, \r\n    uint value, \r\n    address payable owner, \r\n    bool forSale\r\n  );\r\n\r\n  event Transfer(\r\n    uint landID, \r\n    string location, \r\n    uint value, \r\n    address payable owner, \r\n    bool forSale\r\n  );\r\n\r\n  event List(\r\n    uint landID, \r\n    string location, \r\n    uint value, \r\n    address payable owner, \r\n    bool forSale\r\n  );\r\n    \r\n  modifier isOwner {\r\n    require(msg.sender == owner);\r\n    _;\r\n  } \r\n\r\n  function addLand(string memory _location, uint _value) public isOwner {\r\n    // Require a valid location\r\n    require(bytes(_location).length > 0, 'Must be a valid location');\r\n    // Requie a valid value\r\n    require(_value > 0, 'Must be a value');\r\n    // Increment land count\r\n    landCount++;\r\n    // Add land\r\n    lands[landCount] = Land(landCount, _location, _value, msg.sender, true);\r\n    // Trigger an event\r\n    emit Add(landCount, _location, _value, msg.sender, true);\r\n  }\r\n\r\n  function buyLand(uint _id) public payable {\r\n    // Fetch the land\r\n    Land memory _land = lands[_id];\r\n    // Fetch the owner\r\n    address payable _landHolder = _land.owner;\r\n    // Make sure the Land is valid\r\n    require(_land.landID > 0 && _land.landID <= landCount, 'land does not exist');\r\n    // Require that there is enough Ether in the transaction\r\n    require(msg.value >= _land.value, 'Not enough funds');\r\n    // Require land is for sale\r\n    require(_land.forSale == true, 'land is not for sale');\r\n    // Require buyer is not landHolder\r\n    require(_landHolder != msg.sender, 'buyer cannot be land owner');\r\n    // Transfer ownership to buyer\r\n    _land.owner = msg.sender;\r\n    // Mark as purchased\r\n    _land.forSale = false;\r\n    // Update land\r\n    lands[_id] = _land;\r\n    // Pay landHolder\r\n    address(_landHolder).transfer(msg.value);\r\n    // Trigger an event\r\n    emit Transfer(landCount, _land.location, _land.value, msg.sender, false);\r\n  }\r\n  \r\n  function listLand(uint _id, uint _value) public payable {\r\n    // Fetch the land\r\n    Land memory _land = lands[_id];\r\n    // Make sure the Land is valid\r\n    require(_land.landID > 0 && _land.landID <= landCount, 'land does not exist');\r\n    // Require that there is enough Ether in the transaction\r\n    require(_land.owner == msg.sender, 'you are not the land owner');\r\n    // Require land is not listed\r\n    require(_land.forSale == false, 'land is already listed');\r\n    // Mark as listed\r\n    _land.forSale = true;\r\n    // Update price\r\n    _land.value = _value;\r\n    // Update land\r\n    lands[_id] = _land;\r\n    // Trigger an event\r\n    emit List(_id, _land.location, _value, msg.sender, true);\r\n  }\r\n}\r\n    ",
  "sourcePath": "C:\\Users\\KaleemUllah\\Desktop\\work\\Real Estate Dapp (React)\\src\\contracts\\LandContract.sol",
  "compiler": {
    "name": "solc",
    "version": "0.5.0+commit.1d4f565a.Emscripten.clang"
  },
  "schemaVersion": "3.4.3",
  "updatedAt": "2022-05-09T08:11:43.279Z",
  "devdoc": {
    "methods": {}
  },
  "userdoc": {
    "methods": {}
  }
}