{
    "contractName": "LandContract",
    "abi": [
        {
            "constant": true,
            "inputs": [],
            "name": "name",
            "outputs": [
                {
                    "name": "",
                    "type": "string"
                }
            ],
            "payable": false,
            "stateMutability": "view",
            "type": "function"
        },
        {
            "constant": true,
            "inputs": [],
            "name": "owner",
            "outputs": [
                {
                    "name": "",
                    "type": "address"
                }
            ],
            "payable": false,
            "stateMutability": "view",
            "type": "function"
        },
        {
            "constant": false,
            "inputs": [
                {
                    "name": "_id",
                    "type": "uint256"
                }
            ],
            "name": "buyLand",
            "outputs": [],
            "payable": true,
            "stateMutability": "payable",
            "type": "function"
        },
        {
            "constant": true,
            "inputs": [],
            "name": "landCount",
            "outputs": [
                {
                    "name": "",
                    "type": "uint256"
                }
            ],
            "payable": false,
            "stateMutability": "view",
            "type": "function"
        },
        {
            "constant": true,
            "inputs": [
                {
                    "name": "",
                    "type": "uint256"
                }
            ],
            "name": "lands",
            "outputs": [
                {
                    "name": "landID",
                    "type": "uint256"
                },
                {
                    "name": "location",
                    "type": "string"
                },
                {
                    "name": "value",
                    "type": "uint256"
                },
                {
                    "name": "owner",
                    "type": "address"
                },
                {
                    "name": "forSale",
                    "type": "bool"
                }
            ],
            "payable": false,
            "stateMutability": "view",
            "type": "function"
        },
        {
            "constant": false,
            "inputs": [
                {
                    "name": "_location",
                    "type": "string"
                },
                {
                    "name": "_value",
                    "type": "uint256"
                }
            ],
            "name": "addLand",
            "outputs": [],
            "payable": false,
            "stateMutability": "nonpayable",
            "type": "function"
        },
        {
            "constant": false,
            "inputs": [
                {
                    "name": "_id",
                    "type": "uint256"
                },
                {
                    "name": "_value",
                    "type": "uint256"
                }
            ],
            "name": "listLand",
            "outputs": [],
            "payable": true,
            "stateMutability": "payable",
            "type": "function"
        },
        {
            "inputs": [],
            "payable": false,
            "stateMutability": "nonpayable",
            "type": "constructor"
        },
        {
            "anonymous": false,
            "inputs": [
                {
                    "indexed": false,
                    "name": "landID",
                    "type": "uint256"
                },
                {
                    "indexed": false,
                    "name": "location",
                    "type": "string"
                },
                {
                    "indexed": false,
                    "name": "value",
                    "type": "uint256"
                },
                {
                    "indexed": false,
                    "name": "owner",
                    "type": "address"
                },
                {
                    "indexed": false,
                    "name": "forSale",
                    "type": "bool"
                }
            ],
            "name": "Add",
            "type": "event"
        },
        {
            "anonymous": false,
            "inputs": [
                {
                    "indexed": false,
                    "name": "landID",
                    "type": "uint256"
                },
                {
                    "indexed": false,
                    "name": "location",
                    "type": "string"
                },
                {
                    "indexed": false,
                    "name": "value",
                    "type": "uint256"
                },
                {
                    "indexed": false,
                    "name": "owner",
                    "type": "address"
                },
                {
                    "indexed": false,
                    "name": "forSale",
                    "type": "bool"
                }
            ],
            "name": "Transfer",
            "type": "event"
        },
        {
            "anonymous": false,
            "inputs": [
                {
                    "indexed": false,
                    "name": "landID",
                    "type": "uint256"
                },
                {
                    "indexed": false,
                    "name": "location",
                    "type": "string"
                },
                {
                    "indexed": false,
                    "name": "value",
                    "type": "uint256"
                },
                {
                    "indexed": false,
                    "name": "owner",
                    "type": "address"
                },
                {
                    "indexed": false,
                    "name": "forSale",
                    "type": "bool"
                }
            ],
            "name": "List",
            "type": "event"
        }
    ],
    "bytecode": "6080604052600060025534801561001557600080fd5b5060408051808201909152600e8082527f457468657265756d20486f6d6573000000000000000000000000000000000000602090920191825261005a91600091610072565b50600180546001600160a01b0319163317905561010d565b828054600181600116156101000203166002900490600052602060002090601f016020900481019282601f106100b357805160ff19168380011785556100e0565b828001600101855582156100e0579182015b828111156100e05782518255916020019190600101906100c5565b506100ec9291506100f0565b5090565b61010a91905b808211156100ec57600081556001016100f6565b90565b610ed78061011c6000396000f3fe6080604052600436106100705760003560e01c8063d7bce6581161004e578063d7bce6581461014f578063e261f1e514610176578063e6ed0fff1461023e578063f35fb209146102f357610070565b806306fdde03146100755780638da5cb5b146100ff578063ced3955814610130575b600080fd5b34801561008157600080fd5b5061008a610316565b6040805160208082528351818301528351919283929083019185019080838360005b838110156100c45781810151838201526020016100ac565b50505050905090810190601f1680156100f15780820380516001836020036101000a031916815260200191505b509250505060405180910390f35b34801561010b57600080fd5b506101146103a4565b604080516001600160a01b039092168252519081900360200190f35b61014d6004803603602081101561014657600080fd5b50356103b3565b005b34801561015b57600080fd5b506101646107ac565b60408051918252519081900360200190f35b34801561018257600080fd5b506101a06004803603602081101561019957600080fd5b50356107b2565b604080518681529081018490526001600160a01b0383166060820152811515608082015260a06020808301828152875192840192909252865160c084019188019080838360005b838110156101ff5781810151838201526020016101e7565b50505050905090810190601f16801561022c5780820380516001836020036101000a031916815260200191505b50965050505050505060405180910390f35b34801561024a57600080fd5b5061014d6004803603604081101561026157600080fd5b81019060208101813564010000000081111561027c57600080fd5b82018360208201111561028e57600080fd5b803590602001918460018302840111640100000000831117156102b057600080fd5b91908080601f016020809104026020016040519081016040528093929190818152602001838380828437600092019190915250929550509135925061087a915050565b61014d6004803603604081101561030957600080fd5b5080359060200135610aa9565b6000805460408051602060026001851615610100026000190190941693909304601f8101849004840282018401909252818152929183018282801561039c5780601f106103715761010080835404028352916020019161039c565b820191906000526020600020905b81548152906001019060200180831161037f57829003601f168201915b505050505081565b6001546001600160a01b031681565b6103bb610dcd565b600360008381526020019081526020016000206040518060a001604052908160008201548152602001600182018054600181600116156101000203166002900480601f01602080910402602001604051908101604052809291908181526020018280546001816001161561010002031660029004801561047c5780601f106104515761010080835404028352916020019161047c565b820191906000526020600020905b81548152906001019060200180831161045f57829003601f168201915b5050509183525050600282015460208201526003909101546001600160a01b0381166040830152600160a01b900460ff161515606091820152810151815191925090158015906104cf5750600254825111155b610516576040805162461bcd60e51b81526020600482015260136024820152721b185b9908191bd95cc81b9bdd08195e1a5cdd606a1b604482015290519081900360640190fd5b8160400151341015610562576040805162461bcd60e51b815260206004820152601060248201526f4e6f7420656e6f7567682066756e647360801b604482015290519081900360640190fd5b608082015115156001146105b4576040805162461bcd60e51b81526020600482015260146024820152736c616e64206973206e6f7420666f722073616c6560601b604482015290519081900360640190fd5b6001600160a01b038116331415610612576040805162461bcd60e51b815260206004820152601a60248201527f62757965722063616e6e6f74206265206c616e64206f776e6572000000000000604482015290519081900360640190fd5b33606083015260006080830181905283815260036020908152604090912083518155818401518051859361064d926001850192910190610e07565b5060408281015160028301556060830151600390920180546080909401511515600160a01b0260ff60a01b196001600160a01b039485166001600160a01b03199096169590951794909416939093179092559051908216903480156108fc02916000818181858888f193505050501580156106cc573d6000803e3d6000fd5b507ff6058d925aaac6fafc272442a7b5c5d8aac85c921100fd2e254e3ecf89f7ba31600254836020015184604001513360006040518086815260200180602001858152602001846001600160a01b03166001600160a01b0316815260200183151515158152602001828103825286818151815260200191508051906020019080838360005b83811015610769578181015183820152602001610751565b50505050905090810190601f1680156107965780820380516001836020036101000a031916815260200191505b50965050505050505060405180910390a1505050565b60025481565b6003602090815260009182526040918290208054600180830180548651600293821615610100026000190190911692909204601f81018690048602830186019096528582529194929390929083018282801561084f5780601f106108245761010080835404028352916020019161084f565b820191906000526020600020905b81548152906001019060200180831161083257829003601f168201915b5050505060028301546003909301549192916001600160a01b0381169150600160a01b900460ff1685565b6001546001600160a01b0316331461089157600080fd5b60008251116108e7576040805162461bcd60e51b815260206004820152601860248201527f4d75737420626520612076616c6964206c6f636174696f6e0000000000000000604482015290519081900360640190fd5b6000811161092e576040805162461bcd60e51b815260206004820152600f60248201526e4d75737420626520612076616c756560881b604482015290519081900360640190fd5b600280546001908101918290556040805160a0810182528381526020808201878152828401879052336060840152608083018590526000958652600382529290942081518155915180519194929361098c9390850192910190610e07565b50604082810151600280840191909155606080850151600390940180546080968701511515600160a01b0260ff60a01b196001600160a01b039097166001600160a01b031990921691909117959095169490941790935554815181815291820185905233928201839052600193820184905260a0602080840182815288519285019290925287517fb89ec84ff7a8e45184b005a44c7cc48d0e92b5f6b78a5f9d768757d6976854129693958995899591949193909260c084019188019080838360005b83811015610a67578181015183820152602001610a4f565b50505050905090810190601f168015610a945780820380516001836020036101000a031916815260200191505b50965050505050505060405180910390a15050565b610ab1610dcd565b600360008481526020019081526020016000206040518060a001604052908160008201548152602001600182018054600181600116156101000203166002900480601f016020809104026020016040519081016040528092919081815260200182805460018160011615610100020316600290048015610b725780601f10610b4757610100808354040283529160200191610b72565b820191906000526020600020905b815481529060010190602001808311610b5557829003601f168201915b5050509183525050600282015460208201526003909101546001600160a01b0381166040830152600160a01b900460ff161515606090910152805190915015801590610bc15750600254815111155b610c08576040805162461bcd60e51b81526020600482015260136024820152721b185b9908191bd95cc81b9bdd08195e1a5cdd606a1b604482015290519081900360640190fd5b60608101516001600160a01b03163314610c69576040805162461bcd60e51b815260206004820152601a60248201527f796f7520617265206e6f7420746865206c616e64206f776e6572000000000000604482015290519081900360640190fd5b608081015115610cb9576040805162461bcd60e51b81526020600482015260166024820152751b185b99081a5cc8185b1c9958591e481b1a5cdd195960521b604482015290519081900360640190fd5b60016080820181905260408083018490526000858152600360209081529190208351815581840151805185949293610cf5938501920190610e07565b506040828101516002830155606080840151600390930180546080958601511515600160a01b0260ff60a01b196001600160a01b039096166001600160a01b0319909216919091179490941693909317909255602084810151825188815292830187905233938301849052600194830185905260a083830181815282519185019190915281517f860792ae13c1e1b4bfed2f0126e03c27cd34ceddf6b678ee73493c134c4a2e33968a9693958a9591939092909160c08401919088019080838360008315610769578181015183820152602001610751565b6040518060a0016040528060008152602001606081526020016000815260200160006001600160a01b031681526020016000151581525090565b828054600181600116156101000203166002900490600052602060002090601f016020900481019282601f10610e4857805160ff1916838001178555610e75565b82800160010185558215610e75579182015b82811115610e75578251825591602001919060010190610e5a565b50610e81929150610e85565b5090565b610e9f91905b80821115610e815760008155600101610e8b565b9056fea265627a7a72305820dd82892ee361bae991a27e1337709d4e11d8913354522697dff8f40bd186464f64736f6c63430005090032",
    "sourcePath": "c:/Users/KaleemUllah/Desktop/work/Real Estate Dapp (React)/src/contracts/LandContract.sol",
    "compiler": {
        "name": "solc",
        "version": "0.5.9+commit.e560f70d"
    },
    "functionHashes": {
        "addLand(string,uint256)": "e6ed0fff",
        "buyLand(uint256)": "ced39558",
        "landCount()": "d7bce658",
        "lands(uint256)": "e261f1e5",
        "listLand(uint256,uint256)": "f35fb209",
        "name()": "06fdde03",
        "owner()": "8da5cb5b"
    },
    "gasEstimates": {
        "creation": {
            "codeDepositCost": "759800",
            "executionCost": "infinite",
            "totalCost": "infinite"
        },
        "external": {
            "addLand(string,uint256)": "infinite",
            "buyLand(uint256)": "infinite",
            "landCount()": "398",
            "lands(uint256)": "infinite",
            "listLand(uint256,uint256)": "infinite",
            "name()": "infinite",
            "owner()": "460"
        }
    }
}